{
  "_format": "hh-sol-artifact-1",
  "contractName": "TokenFarm",
  "sourceName": "contracts/TokenFarm.sol",
  "abi": [
    {
      "inputs": [
        {
          "internalType": "contract DAppToken",
          "name": "_dappToken",
          "type": "address"
        },
        {
          "internalType": "contract LPToken",
          "name": "_lpToken",
          "type": "address"
        },
        {
          "internalType": "uint256",
          "name": "_initialRewardPerBlock",
          "type": "uint256"
        }
      ],
      "stateMutability": "nonpayable",
      "type": "constructor"
    },
    {
      "anonymous": false,
      "inputs": [
        {
          "indexed": false,
          "internalType": "uint16",
          "name": "bps",
          "type": "uint16"
        },
        {
          "indexed": false,
          "internalType": "address",
          "name": "feeRecipient",
          "type": "address"
        }
      ],
      "name": "ClaimFeeUpdated",
      "type": "event"
    },
    {
      "anonymous": false,
      "inputs": [
        {
          "indexed": true,
          "internalType": "address",
          "name": "user",
          "type": "address"
        },
        {
          "indexed": false,
          "internalType": "uint256",
          "name": "amount",
          "type": "uint256"
        }
      ],
      "name": "Deposit",
      "type": "event"
    },
    {
      "anonymous": false,
      "inputs": [
        {
          "indexed": true,
          "internalType": "address",
          "name": "previousOwner",
          "type": "address"
        },
        {
          "indexed": true,
          "internalType": "address",
          "name": "newOwner",
          "type": "address"
        }
      ],
      "name": "OwnershipTransferred",
      "type": "event"
    },
    {
      "anonymous": false,
      "inputs": [
        {
          "indexed": false,
          "internalType": "uint256",
          "name": "newReward",
          "type": "uint256"
        }
      ],
      "name": "RewardPerBlockUpdated",
      "type": "event"
    },
    {
      "anonymous": false,
      "inputs": [
        {
          "indexed": false,
          "internalType": "uint256",
          "name": "newMin",
          "type": "uint256"
        },
        {
          "indexed": false,
          "internalType": "uint256",
          "name": "newMax",
          "type": "uint256"
        }
      ],
      "name": "RewardRangeUpdated",
      "type": "event"
    },
    {
      "anonymous": false,
      "inputs": [
        {
          "indexed": true,
          "internalType": "address",
          "name": "user",
          "type": "address"
        },
        {
          "indexed": false,
          "internalType": "uint256",
          "name": "amountAccrued",
          "type": "uint256"
        },
        {
          "indexed": false,
          "internalType": "uint256",
          "name": "blocks",
          "type": "uint256"
        }
      ],
      "name": "RewardsAccrued",
      "type": "event"
    },
    {
      "anonymous": false,
      "inputs": [
        {
          "indexed": true,
          "internalType": "address",
          "name": "user",
          "type": "address"
        },
        {
          "indexed": false,
          "internalType": "uint256",
          "name": "netAmount",
          "type": "uint256"
        },
        {
          "indexed": false,
          "internalType": "uint256",
          "name": "fee",
          "type": "uint256"
        }
      ],
      "name": "RewardsClaimed",
      "type": "event"
    },
    {
      "anonymous": false,
      "inputs": [
        {
          "indexed": false,
          "internalType": "uint256",
          "name": "processedCount",
          "type": "uint256"
        }
      ],
      "name": "RewardsDistributedAll",
      "type": "event"
    },
    {
      "anonymous": false,
      "inputs": [
        {
          "indexed": true,
          "internalType": "address",
          "name": "user",
          "type": "address"
        },
        {
          "indexed": false,
          "internalType": "uint256",
          "name": "amount",
          "type": "uint256"
        }
      ],
      "name": "Withdraw",
      "type": "event"
    },
    {
      "inputs": [],
      "name": "claimFeeBps",
      "outputs": [
        {
          "internalType": "uint16",
          "name": "",
          "type": "uint16"
        }
      ],
      "stateMutability": "view",
      "type": "function"
    },
    {
      "inputs": [],
      "name": "claimRewards",
      "outputs": [],
      "stateMutability": "nonpayable",
      "type": "function"
    },
    {
      "inputs": [],
      "name": "dappToken",
      "outputs": [
        {
          "internalType": "contract DAppToken",
          "name": "",
          "type": "address"
        }
      ],
      "stateMutability": "view",
      "type": "function"
    },
    {
      "inputs": [
        {
          "internalType": "uint256",
          "name": "amount",
          "type": "uint256"
        }
      ],
      "name": "deposit",
      "outputs": [],
      "stateMutability": "nonpayable",
      "type": "function"
    },
    {
      "inputs": [],
      "name": "distributeRewardsAll",
      "outputs": [],
      "stateMutability": "nonpayable",
      "type": "function"
    },
    {
      "inputs": [],
      "name": "feeRecipient",
      "outputs": [
        {
          "internalType": "address",
          "name": "",
          "type": "address"
        }
      ],
      "stateMutability": "view",
      "type": "function"
    },
    {
      "inputs": [
        {
          "internalType": "address",
          "name": "account",
          "type": "address"
        }
      ],
      "name": "getPendingRewards",
      "outputs": [
        {
          "internalType": "uint256",
          "name": "",
          "type": "uint256"
        }
      ],
      "stateMutability": "view",
      "type": "function"
    },
    {
      "inputs": [],
      "name": "lastAccrualBlock",
      "outputs": [
        {
          "internalType": "uint256",
          "name": "",
          "type": "uint256"
        }
      ],
      "stateMutability": "view",
      "type": "function"
    },
    {
      "inputs": [],
      "name": "lpToken",
      "outputs": [
        {
          "internalType": "contract LPToken",
          "name": "",
          "type": "address"
        }
      ],
      "stateMutability": "view",
      "type": "function"
    },
    {
      "inputs": [],
      "name": "maxRewardPerBlock",
      "outputs": [
        {
          "internalType": "uint256",
          "name": "",
          "type": "uint256"
        }
      ],
      "stateMutability": "view",
      "type": "function"
    },
    {
      "inputs": [],
      "name": "minRewardPerBlock",
      "outputs": [
        {
          "internalType": "uint256",
          "name": "",
          "type": "uint256"
        }
      ],
      "stateMutability": "view",
      "type": "function"
    },
    {
      "inputs": [],
      "name": "name",
      "outputs": [
        {
          "internalType": "string",
          "name": "",
          "type": "string"
        }
      ],
      "stateMutability": "view",
      "type": "function"
    },
    {
      "inputs": [],
      "name": "owner",
      "outputs": [
        {
          "internalType": "address",
          "name": "",
          "type": "address"
        }
      ],
      "stateMutability": "view",
      "type": "function"
    },
    {
      "inputs": [],
      "name": "rewardPerBlock",
      "outputs": [
        {
          "internalType": "uint256",
          "name": "",
          "type": "uint256"
        }
      ],
      "stateMutability": "view",
      "type": "function"
    },
    {
      "inputs": [
        {
          "internalType": "uint16",
          "name": "_bps",
          "type": "uint16"
        },
        {
          "internalType": "address",
          "name": "_feeRecipient",
          "type": "address"
        }
      ],
      "name": "setClaimFee",
      "outputs": [],
      "stateMutability": "nonpayable",
      "type": "function"
    },
    {
      "inputs": [
        {
          "internalType": "uint256",
          "name": "_new",
          "type": "uint256"
        }
      ],
      "name": "setRewardPerBlock",
      "outputs": [],
      "stateMutability": "nonpayable",
      "type": "function"
    },
    {
      "inputs": [
        {
          "internalType": "uint256",
          "name": "_min",
          "type": "uint256"
        },
        {
          "internalType": "uint256",
          "name": "_max",
          "type": "uint256"
        }
      ],
      "name": "setRewardRange",
      "outputs": [],
      "stateMutability": "nonpayable",
      "type": "function"
    },
    {
      "inputs": [
        {
          "internalType": "uint256",
          "name": "",
          "type": "uint256"
        }
      ],
      "name": "stakers",
      "outputs": [
        {
          "internalType": "address",
          "name": "",
          "type": "address"
        }
      ],
      "stateMutability": "view",
      "type": "function"
    },
    {
      "inputs": [],
      "name": "stakersCount",
      "outputs": [
        {
          "internalType": "uint256",
          "name": "",
          "type": "uint256"
        }
      ],
      "stateMutability": "view",
      "type": "function"
    },
    {
      "inputs": [],
      "name": "totalStakingBalance",
      "outputs": [
        {
          "internalType": "uint256",
          "name": "",
          "type": "uint256"
        }
      ],
      "stateMutability": "view",
      "type": "function"
    },
    {
      "inputs": [
        {
          "internalType": "address",
          "name": "newOwner",
          "type": "address"
        }
      ],
      "name": "transferOwnership",
      "outputs": [],
      "stateMutability": "nonpayable",
      "type": "function"
    },
    {
      "inputs": [
        {
          "internalType": "address",
          "name": "",
          "type": "address"
        }
      ],
      "name": "users",
      "outputs": [
        {
          "internalType": "uint256",
          "name": "stakingBalance",
          "type": "uint256"
        },
        {
          "internalType": "uint256",
          "name": "pendingRewards",
          "type": "uint256"
        },
        {
          "internalType": "bool",
          "name": "hasStaked",
          "type": "bool"
        },
        {
          "internalType": "bool",
          "name": "isStaking",
          "type": "bool"
        }
      ],
      "stateMutability": "view",
      "type": "function"
    },
    {
      "inputs": [],
      "name": "withdraw",
      "outputs": [],
      "stateMutability": "nonpayable",
      "type": "function"
    },
    {
      "inputs": [
        {
          "internalType": "uint256",
          "name": "amount",
          "type": "uint256"
        },
        {
          "internalType": "address",
          "name": "to",
          "type": "address"
        }
      ],
      "name": "withdrawFees",
      "outputs": [],
      "stateMutability": "nonpayable",
      "type": "function"
    }
  ],
  "bytecode": "0x60c06040523480156200001157600080fd5b5060405162002bdf38038062002bdf83398181016040528101906200003791906200044f565b600073ffffffffffffffffffffffffffffffffffffffff168373ffffffffffffffffffffffffffffffffffffffff1614158015620000a25750600073ffffffffffffffffffffffffffffffffffffffff168273ffffffffffffffffffffffffffffffffffffffff1614155b620000e4576040517f08c379a0000000000000000000000000000000000000000000000000000000008152600401620000db906200050c565b60405180910390fd5b8273ffffffffffffffffffffffffffffffffffffffff1660808173ffffffffffffffffffffffffffffffffffffffff16815250508173ffffffffffffffffffffffffffffffffffffffff1660a08173ffffffffffffffffffffffffffffffffffffffff1681525050336000806101000a81548173ffffffffffffffffffffffffffffffffffffffff021916908373ffffffffffffffffffffffffffffffffffffffff1602179055503373ffffffffffffffffffffffffffffffffffffffff16600073ffffffffffffffffffffffffffffffffffffffff167f8be0079c531659141344cd1fd0a4f28419497f9722a3daafe3b4186f6b6457e060405160405180910390a38060018190555080600281905550806003819055507f5ed0ffa545a9eae0edd36b74378d16454cf385281383c7632ad5b2ebf3ab2b92816040516200022d91906200053f565b60405180910390a17f8d7cd90761f23af2912b733d2169842022827f4cfb9d94750ffadd9002364efb6002546003546040516200026c9291906200055c565b60405180910390a16000600460006101000a81548161ffff021916908361ffff1602179055506000600460026101000a81548173ffffffffffffffffffffffffffffffffffffffff021916908373ffffffffffffffffffffffffffffffffffffffff1602179055507fe9cb90fe5c89e68a58aa1b3a2ca05c4b3209253c708ff7887598023adbb44499600460009054906101000a900461ffff16600460029054906101000a900473ffffffffffffffffffffffffffffffffffffffff1660405162000339929190620005b9565b60405180910390a143600681905550505050620005e6565b600080fd5b600073ffffffffffffffffffffffffffffffffffffffff82169050919050565b6000620003838262000356565b9050919050565b6000620003978262000376565b9050919050565b620003a9816200038a565b8114620003b557600080fd5b50565b600081519050620003c9816200039e565b92915050565b6000620003dc8262000376565b9050919050565b620003ee81620003cf565b8114620003fa57600080fd5b50565b6000815190506200040e81620003e3565b92915050565b6000819050919050565b620004298162000414565b81146200043557600080fd5b50565b60008151905062000449816200041e565b92915050565b6000806000606084860312156200046b576200046a62000351565b5b60006200047b86828701620003b8565b93505060206200048e86828701620003fd565b9250506040620004a18682870162000438565b9150509250925092565b600082825260208201905092915050565b7f5a65726f20616464720000000000000000000000000000000000000000000000600082015250565b6000620004f4600983620004ab565b91506200050182620004bc565b602082019050919050565b600060208201905081810360008301526200052781620004e5565b9050919050565b620005398162000414565b82525050565b60006020820190506200055660008301846200052e565b92915050565b60006040820190506200057360008301856200052e565b6200058260208301846200052e565b9392505050565b600061ffff82169050919050565b620005a28162000589565b82525050565b620005b38162000376565b82525050565b6000604082019050620005d0600083018562000597565b620005df6020830184620005a8565b9392505050565b60805160a0516125a962000636600039600081816108e901528181610be20152610e5001526000818161053f0152818161065801528181610bbe015281816115e701526116c201526125a96000f3fe608060405234801561001057600080fd5b50600436106101585760003560e01c80638da5cb5b116100c3578063dd2cc3f31161007c578063dd2cc3f31461034a578063e766c83514610366578063f2fde38b14610384578063f6ed2017146103a0578063fd5e6dd1146103d0578063ffd14bc21461040057610158565b80638da5cb5b14610299578063a2e80c5e146102b7578063a87430ba146102d5578063b6b55f2514610308578063bb872b4a14610324578063db03e2271461034057610158565b8063469048401161011557806346904840146101e75780635eb186f8146102055780635fcbd285146102235780637a526f4e14610241578063863ea94a1461025f5780638ae39cac1461027b57610158565b806306fdde031461015d57806309be19f91461017b5780631f46eaae14610199578063372500ab146101b75780633ccfd60b146101c15780633de34a3d146101cb575b600080fd5b61016561041e565b6040516101729190611a45565b60405180910390f35b610183610457565b6040516101909190611a80565b60405180910390f35b6101a161045d565b6040516101ae9190611a80565b60405180910390f35b6101bf610463565b005b6101c961073b565b005b6101e560048036038101906101e09190611acc565b6109df565b005b6101ef610b96565b6040516101fc9190611b4d565b60405180910390f35b61020d610bbc565b60405161021a9190611bc7565b60405180910390f35b61022b610be0565b6040516102389190611c03565b60405180910390f35b610249610c04565b6040516102569190611c3b565b60405180910390f35b61027960048036038101906102749190611cae565b610c18565b005b610283610d8a565b6040516102909190611a80565b60405180910390f35b6102a1610d90565b6040516102ae9190611b4d565b60405180910390f35b6102bf610db4565b6040516102cc9190611a80565b60405180910390f35b6102ef60048036038101906102ea9190611cee565b610dc1565b6040516102ff9493929190611d36565b60405180910390f35b610322600480360381019061031d9190611d7b565b610e0b565b005b61033e60048036038101906103399190611d7b565b611073565b005b610348611195565b005b610364600480360381019061035f9190611da8565b6114f7565b005b61036e611764565b60405161037b9190611a80565b60405180910390f35b61039e60048036038101906103999190611cee565b61176a565b005b6103ba60048036038101906103b59190611cee565b611924565b6040516103c79190611a80565b60405180910390f35b6103ea60048036038101906103e59190611d7b565b611970565b6040516103f79190611b4d565b60405180910390f35b6104086119af565b6040516104159190611a80565b60405180910390f35b6040518060400160405280601781526020017f50726f706f7274696f6e616c20546f6b656e204661726d00000000000000000081525081565b60025481565b60065481565b6000600860003373ffffffffffffffffffffffffffffffffffffffff1673ffffffffffffffffffffffffffffffffffffffff1681526020019081526020016000209050600081600101549050600081116104f2576040517f08c379a00000000000000000000000000000000000000000000000000000000081526004016104e990611e34565b60405180910390fd5b600082600101819055506000612710600460009054906101000a900461ffff1661ffff16836105219190611e83565b61052b9190611ef4565b90506000818361053b9190611f25565b90507f000000000000000000000000000000000000000000000000000000000000000073ffffffffffffffffffffffffffffffffffffffff166340c10f1933836040518363ffffffff1660e01b8152600401610598929190611f59565b600060405180830381600087803b1580156105b257600080fd5b505af11580156105c6573d6000803e3d6000fd5b5050505060008211156106e55760008073ffffffffffffffffffffffffffffffffffffffff16600460029054906101000a900473ffffffffffffffffffffffffffffffffffffffff1673ffffffffffffffffffffffffffffffffffffffff161461065257600460029054906101000a900473ffffffffffffffffffffffffffffffffffffffff16610654565b305b90507f000000000000000000000000000000000000000000000000000000000000000073ffffffffffffffffffffffffffffffffffffffff166340c10f1982856040518363ffffffff1660e01b81526004016106b1929190611f59565b600060405180830381600087803b1580156106cb57600080fd5b505af11580156106df573d6000803e3d6000fd5b50505050505b3373ffffffffffffffffffffffffffffffffffffffff167fdacbdde355ba930696a362ea6738feb9f8bd52dfb3d81947558fd3217e23e325828460405161072d929190611f82565b60405180910390a250505050565b600860003373ffffffffffffffffffffffffffffffffffffffff1673ffffffffffffffffffffffffffffffffffffffff16815260200190815260200160002060020160019054906101000a900460ff1680156107d957506000600860003373ffffffffffffffffffffffffffffffffffffffff1673ffffffffffffffffffffffffffffffffffffffff16815260200190815260200160002060000154115b610818576040517f08c379a000000000000000000000000000000000000000000000000000000000815260040161080f90611ff7565b60405180910390fd5b6000600860003373ffffffffffffffffffffffffffffffffffffffff1673ffffffffffffffffffffffffffffffffffffffff1681526020019081526020016000209050600081600001549050600081116108a7576040517f08c379a000000000000000000000000000000000000000000000000000000000815260040161089e90612063565b60405180910390fd5b6000826000018190555060008260020160016101000a81548160ff02191690831515021790555080600560008282546108e09190611f25565b925050819055507f000000000000000000000000000000000000000000000000000000000000000073ffffffffffffffffffffffffffffffffffffffff1663a9059cbb33836040518363ffffffff1660e01b8152600401610942929190611f59565b6020604051808303816000875af1158015610961573d6000803e3d6000fd5b505050506040513d601f19601f8201168201806040525081019061098591906120af565b50436006819055503373ffffffffffffffffffffffffffffffffffffffff167f884edad9ce6fa2440d8a54cc123490eb96d2768479d49ff9c7366125a9424364826040516109d39190611a80565b60405180910390a25050565b60008054906101000a900473ffffffffffffffffffffffffffffffffffffffff1673ffffffffffffffffffffffffffffffffffffffff163373ffffffffffffffffffffffffffffffffffffffff1614610a6d576040517f08c379a0000000000000000000000000000000000000000000000000000000008152600401610a6490612128565b60405180910390fd5b80821115610ab0576040517f08c379a0000000000000000000000000000000000000000000000000000000008152600401610aa790612194565b60405180910390fd5b81600281905550806003819055507f8d7cd90761f23af2912b733d2169842022827f4cfb9d94750ffadd9002364efb8282604051610aef929190611f82565b60405180910390a1816001541015610b4657816001819055507f5ed0ffa545a9eae0edd36b74378d16454cf385281383c7632ad5b2ebf3ab2b92600154604051610b399190611a80565b60405180910390a1610b92565b806001541115610b9157806001819055507f5ed0ffa545a9eae0edd36b74378d16454cf385281383c7632ad5b2ebf3ab2b92600154604051610b889190611a80565b60405180910390a15b5b5050565b600460029054906101000a900473ffffffffffffffffffffffffffffffffffffffff1681565b7f000000000000000000000000000000000000000000000000000000000000000081565b7f000000000000000000000000000000000000000000000000000000000000000081565b600460009054906101000a900461ffff1681565b60008054906101000a900473ffffffffffffffffffffffffffffffffffffffff1673ffffffffffffffffffffffffffffffffffffffff163373ffffffffffffffffffffffffffffffffffffffff1614610ca6576040517f08c379a0000000000000000000000000000000000000000000000000000000008152600401610c9d90612128565b60405180910390fd5b6107d08261ffff161115610cef576040517f08c379a0000000000000000000000000000000000000000000000000000000008152600401610ce690612200565b60405180910390fd5b81600460006101000a81548161ffff021916908361ffff16021790555080600460026101000a81548173ffffffffffffffffffffffffffffffffffffffff021916908373ffffffffffffffffffffffffffffffffffffffff1602179055507fe9cb90fe5c89e68a58aa1b3a2ca05c4b3209253c708ff7887598023adbb444998282604051610d7e929190612220565b60405180910390a15050565b60015481565b60008054906101000a900473ffffffffffffffffffffffffffffffffffffffff1681565b6000600780549050905090565b60086020528060005260406000206000915090508060000154908060010154908060020160009054906101000a900460ff16908060020160019054906101000a900460ff16905084565b60008111610e4e576040517f08c379a0000000000000000000000000000000000000000000000000000000008152600401610e4590612295565b60405180910390fd5b7f000000000000000000000000000000000000000000000000000000000000000073ffffffffffffffffffffffffffffffffffffffff166323b872dd3330846040518463ffffffff1660e01b8152600401610eab939291906122b5565b6020604051808303816000875af1158015610eca573d6000803e3d6000fd5b505050506040513d601f19601f82011682018060405250810190610eee91906120af565b506000600860003373ffffffffffffffffffffffffffffffffffffffff1673ffffffffffffffffffffffffffffffffffffffff16815260200190815260200160002090508060020160009054906101000a900460ff16610fc9576007339080600181540180825580915050600190039060005260206000200160009091909190916101000a81548173ffffffffffffffffffffffffffffffffffffffff021916908373ffffffffffffffffffffffffffffffffffffffff16021790555060018160020160006101000a81548160ff0219169083151502179055505b60018160020160016101000a81548160ff02191690831515021790555081816000016000828254610ffa91906122ec565b92505081905550816005600082825461101391906122ec565b92505081905550436006819055503373ffffffffffffffffffffffffffffffffffffffff167fe1fffcc4923d04b559f4d29a8bfc6cda04eb5b0d3c460751c2402c5c5cc9109c836040516110679190611a80565b60405180910390a25050565b60008054906101000a900473ffffffffffffffffffffffffffffffffffffffff1673ffffffffffffffffffffffffffffffffffffffff163373ffffffffffffffffffffffffffffffffffffffff1614611101576040517f08c379a00000000000000000000000000000000000000000000000000000000081526004016110f890612128565b60405180910390fd5b600254811015801561111557506003548111155b611154576040517f08c379a000000000000000000000000000000000000000000000000000000000815260040161114b9061236c565b60405180910390fd5b806001819055507f5ed0ffa545a9eae0edd36b74378d16454cf385281383c7632ad5b2ebf3ab2b928160405161118a9190611a80565b60405180910390a150565b60008054906101000a900473ffffffffffffffffffffffffffffffffffffffff1673ffffffffffffffffffffffffffffffffffffffff163373ffffffffffffffffffffffffffffffffffffffff1614611223576040517f08c379a000000000000000000000000000000000000000000000000000000000815260040161121a90612128565b60405180910390fd5b6006544311611269577fc0b7c32b2f7bf30685be9ade07e89add11ba5dde80208a672b1fab63ef789143600060405161125c91906123c7565b60405180910390a16114f5565b6000600654436112799190611f25565b9050600081148061128c57506000600554145b156112d657436006819055507fc0b7c32b2f7bf30685be9ade07e89add11ba5dde80208a672b1fab63ef78914360006040516112c891906123c7565b60405180910390a1506114f5565b60006001826112e59190611f25565b90506000810361132e577fc0b7c32b2f7bf30685be9ade07e89add11ba5dde80208a672b1fab63ef789143600060405161131f91906123c7565b60405180910390a150506114f5565b600080600090505b6007805490508110156114b257600060078281548110611359576113586123e2565b5b9060005260206000200160009054906101000a900473ffffffffffffffffffffffffffffffffffffffff1690506000600860008373ffffffffffffffffffffffffffffffffffffffff1673ffffffffffffffffffffffffffffffffffffffff16815260200190815260200160002090508060020160019054906101000a900460ff1680156113eb575060008160000154115b156114a35760006005548660015484600001546114089190611e83565b6114129190611e83565b61141c9190611ef4565b90506000811115611493578082600101600082825461143b91906122ec565b925050819055508273ffffffffffffffffffffffffffffffffffffffff167fdb4b749d1f52d72d5c83609af056c57162467eb2093ab0bb8095275f29827487828860405161148a929190611f82565b60405180910390a25b848061149e90612411565b955050505b50508080600101915050611336565b50436006819055507fc0b7c32b2f7bf30685be9ade07e89add11ba5dde80208a672b1fab63ef789143816040516114e99190611a80565b60405180910390a15050505b565b60008054906101000a900473ffffffffffffffffffffffffffffffffffffffff1673ffffffffffffffffffffffffffffffffffffffff163373ffffffffffffffffffffffffffffffffffffffff1614611585576040517f08c379a000000000000000000000000000000000000000000000000000000000815260040161157c90612128565b60405180910390fd5b60008073ffffffffffffffffffffffffffffffffffffffff168273ffffffffffffffffffffffffffffffffffffffff16146115c057816115e2565b60008054906101000a900473ffffffffffffffffffffffffffffffffffffffff165b9050827f000000000000000000000000000000000000000000000000000000000000000073ffffffffffffffffffffffffffffffffffffffff166370a08231306040518263ffffffff1660e01b815260040161163e9190611b4d565b602060405180830381865afa15801561165b573d6000803e3d6000fd5b505050506040513d601f19601f8201168201806040525081019061167f919061246e565b10156116c0576040517f08c379a00000000000000000000000000000000000000000000000000000000081526004016116b7906124e7565b60405180910390fd5b7f000000000000000000000000000000000000000000000000000000000000000073ffffffffffffffffffffffffffffffffffffffff1663a9059cbb82856040518363ffffffff1660e01b815260040161171b929190611f59565b6020604051808303816000875af115801561173a573d6000803e3d6000fd5b505050506040513d601f19601f8201168201806040525081019061175e91906120af565b50505050565b60055481565b60008054906101000a900473ffffffffffffffffffffffffffffffffffffffff1673ffffffffffffffffffffffffffffffffffffffff163373ffffffffffffffffffffffffffffffffffffffff16146117f8576040517f08c379a00000000000000000000000000000000000000000000000000000000081526004016117ef90612128565b60405180910390fd5b600073ffffffffffffffffffffffffffffffffffffffff168173ffffffffffffffffffffffffffffffffffffffff1603611867576040517f08c379a000000000000000000000000000000000000000000000000000000000815260040161185e90612553565b60405180910390fd5b8073ffffffffffffffffffffffffffffffffffffffff1660008054906101000a900473ffffffffffffffffffffffffffffffffffffffff1673ffffffffffffffffffffffffffffffffffffffff167f8be0079c531659141344cd1fd0a4f28419497f9722a3daafe3b4186f6b6457e060405160405180910390a3806000806101000a81548173ffffffffffffffffffffffffffffffffffffffff021916908373ffffffffffffffffffffffffffffffffffffffff16021790555050565b6000600860008373ffffffffffffffffffffffffffffffffffffffff1673ffffffffffffffffffffffffffffffffffffffff168152602001908152602001600020600101549050919050565b6007818154811061198057600080fd5b906000526020600020016000915054906101000a900473ffffffffffffffffffffffffffffffffffffffff1681565b60035481565b600081519050919050565b600082825260208201905092915050565b60005b838110156119ef5780820151818401526020810190506119d4565b60008484015250505050565b6000601f19601f8301169050919050565b6000611a17826119b5565b611a2181856119c0565b9350611a318185602086016119d1565b611a3a816119fb565b840191505092915050565b60006020820190508181036000830152611a5f8184611a0c565b905092915050565b6000819050919050565b611a7a81611a67565b82525050565b6000602082019050611a956000830184611a71565b92915050565b600080fd5b611aa981611a67565b8114611ab457600080fd5b50565b600081359050611ac681611aa0565b92915050565b60008060408385031215611ae357611ae2611a9b565b5b6000611af185828601611ab7565b9250506020611b0285828601611ab7565b9150509250929050565b600073ffffffffffffffffffffffffffffffffffffffff82169050919050565b6000611b3782611b0c565b9050919050565b611b4781611b2c565b82525050565b6000602082019050611b626000830184611b3e565b92915050565b6000819050919050565b6000611b8d611b88611b8384611b0c565b611b68565b611b0c565b9050919050565b6000611b9f82611b72565b9050919050565b6000611bb182611b94565b9050919050565b611bc181611ba6565b82525050565b6000602082019050611bdc6000830184611bb8565b92915050565b6000611bed82611b94565b9050919050565b611bfd81611be2565b82525050565b6000602082019050611c186000830184611bf4565b92915050565b600061ffff82169050919050565b611c3581611c1e565b82525050565b6000602082019050611c506000830184611c2c565b92915050565b611c5f81611c1e565b8114611c6a57600080fd5b50565b600081359050611c7c81611c56565b92915050565b611c8b81611b2c565b8114611c9657600080fd5b50565b600081359050611ca881611c82565b92915050565b60008060408385031215611cc557611cc4611a9b565b5b6000611cd385828601611c6d565b9250506020611ce485828601611c99565b9150509250929050565b600060208284031215611d0457611d03611a9b565b5b6000611d1284828501611c99565b91505092915050565b60008115159050919050565b611d3081611d1b565b82525050565b6000608082019050611d4b6000830187611a71565b611d586020830186611a71565b611d656040830185611d27565b611d726060830184611d27565b95945050505050565b600060208284031215611d9157611d90611a9b565b5b6000611d9f84828501611ab7565b91505092915050565b60008060408385031215611dbf57611dbe611a9b565b5b6000611dcd85828601611ab7565b9250506020611dde85828601611c99565b9150509250929050565b7f6e6f7468696e6720746f20636c61696d00000000000000000000000000000000600082015250565b6000611e1e6010836119c0565b9150611e2982611de8565b602082019050919050565b60006020820190508181036000830152611e4d81611e11565b9050919050565b7f4e487b7100000000000000000000000000000000000000000000000000000000600052601160045260246000fd5b6000611e8e82611a67565b9150611e9983611a67565b9250828202611ea781611a67565b91508282048414831517611ebe57611ebd611e54565b5b5092915050565b7f4e487b7100000000000000000000000000000000000000000000000000000000600052601260045260246000fd5b6000611eff82611a67565b9150611f0a83611a67565b925082611f1a57611f19611ec5565b5b828204905092915050565b6000611f3082611a67565b9150611f3b83611a67565b9250828203905081811115611f5357611f52611e54565b5b92915050565b6000604082019050611f6e6000830185611b3e565b611f7b6020830184611a71565b9392505050565b6000604082019050611f976000830185611a71565b611fa46020830184611a71565b9392505050565b7f4e6f74207374616b696e67000000000000000000000000000000000000000000600082015250565b6000611fe1600b836119c0565b9150611fec82611fab565b602082019050919050565b6000602082019050818103600083015261201081611fd4565b9050919050565b7f6e6f207374616b65000000000000000000000000000000000000000000000000600082015250565b600061204d6008836119c0565b915061205882612017565b602082019050919050565b6000602082019050818103600083015261207c81612040565b9050919050565b61208c81611d1b565b811461209757600080fd5b50565b6000815190506120a981612083565b92915050565b6000602082840312156120c5576120c4611a9b565b5b60006120d38482850161209a565b91505092915050565b7f4e6f74206f776e65720000000000000000000000000000000000000000000000600082015250565b60006121126009836119c0565b915061211d826120dc565b602082019050919050565b6000602082019050818103600083015261214181612105565b9050919050565b7f6d696e3e6d617800000000000000000000000000000000000000000000000000600082015250565b600061217e6007836119c0565b915061218982612148565b602082019050919050565b600060208201905081810360008301526121ad81612171565b9050919050565b7f66656520746f6f206869676820283e3230252900000000000000000000000000600082015250565b60006121ea6013836119c0565b91506121f5826121b4565b602082019050919050565b60006020820190508181036000830152612219816121dd565b9050919050565b60006040820190506122356000830185611c2c565b6122426020830184611b3e565b9392505050565b7f616d6f756e743d30000000000000000000000000000000000000000000000000600082015250565b600061227f6008836119c0565b915061228a82612249565b602082019050919050565b600060208201905081810360008301526122ae81612272565b9050919050565b60006060820190506122ca6000830186611b3e565b6122d76020830185611b3e565b6122e46040830184611a71565b949350505050565b60006122f782611a67565b915061230283611a67565b925082820190508082111561231a57612319611e54565b5b92915050565b7f6f7574206f662072616e67650000000000000000000000000000000000000000600082015250565b6000612356600c836119c0565b915061236182612320565b602082019050919050565b6000602082019050818103600083015261238581612349565b9050919050565b6000819050919050565b60006123b16123ac6123a78461238c565b611b68565b611a67565b9050919050565b6123c181612396565b82525050565b60006020820190506123dc60008301846123b8565b92915050565b7f4e487b7100000000000000000000000000000000000000000000000000000000600052603260045260246000fd5b600061241c82611a67565b91507fffffffffffffffffffffffffffffffffffffffffffffffffffffffffffffffff820361244e5761244d611e54565b5b600182019050919050565b60008151905061246881611aa0565b92915050565b60006020828403121561248457612483611a9b565b5b600061249284828501612459565b91505092915050565b7f696e73756666696369656e742066656573000000000000000000000000000000600082015250565b60006124d16011836119c0565b91506124dc8261249b565b602082019050919050565b60006020820190508181036000830152612500816124c4565b9050919050565b7f6e65774f776e65723d3000000000000000000000000000000000000000000000600082015250565b600061253d600a836119c0565b915061254882612507565b602082019050919050565b6000602082019050818103600083015261256c81612530565b905091905056fea2646970667358221220f694ab0ed8db91e7a26c44f35bfd6e69c8ca82928d78a14b82ff6cfc1d3d998a64736f6c63430008160033",
  "linkReferences": {},
  "deployedLinkReferences": {}
}